:0200000420409A
:100000009711C05F938101FA9702000093828201E9
:100010007390523093021000638402007350107C7E
:100020009702000093824211739052301301000036
:1000300063140100138101CD732540F18142130344
:100040000040137101FF6385A2001A918502D5BF9C
:10005000970000009380C00763830000829073259F
:1000600040F181450146ED209300000063830000CC
:100070008290970200009382C20073905230032353
:100080000000F5BF000000008280A14673B3063077
:10009000914263C555001376350011CA230005004F
:1000A0000505FD15E347B0FE731003308280232061
:1000B00005001105F115E34EB0FC7310033082808A
:1000C000232003001103E34D73FE82800684970210
:1000D000C0DF938222F3638C02049702C0DF938215
:1000E00062F2F32740F1A14673B006300A8397030A
:1000F000C0DF938323318A9363037300D1376398FE
:1001000057021703C05F1303E3EF9703C05F9383A6
:10011000E36B630373006D371703C05F130383EE54
:100120009703C05F938303EE63037300513FA28084
:1001300082800000F322203473231034F323303400
:10014000D5BF411122C6000801003244410182801E
:1001500006849711C05F9381E1E49302000063116C
:10016000550E976200009382626D1703C05F130300
:1001700063E99703C05F93836365638C6200635A8E
:10018000730003A5020091022320A3001103E34A98
:1001900073FE971200009382E2DB1703C05F130324
:1001A00063E69703C05F9383E3E5638C6200635A61
:1001B000730003A5020091022320A3001103E34A68
:1001C00073FE0F100000971200009382A2D817034D
:1001D000C05F130323E39703C05F9383A3E2638CA1
:1001E0006200635A730003A5020091022320A3005A
:1001F0001103E34A73FE0F1000001703C05F1303DF
:10020000E35C9383C18C63577300232003001103C5
:10021000E34D73FE1702C05F1302425B11C20296E8
:10022000172500001305E5BCEF109038EF10903F44
:10023000172500001305A5E9EF109037EF10B06700
:100240000937FD5673B0463073B04634F32710308B
:10025000372704007D8F09C773B0363073B026305E
:10026000370704007D8F19C373B006184167130761
:100270008702F98F89CBF32700300967D98F7390F4
:10028000073073503000F327103037072000F98F04
:1002900099C7F327003093E707207390073005458F
:1002A000970500009385C5131706000013068613F3
:1002B0003120EF103031A28082808280411106C24D
:1002C000F32240F1130300006385620073005010B5
:0C02D000F5BFEF00F04A9240410182802F
:0C02E000EC024020100340203C034020B2
:1002EC00411106C622C40008F16793850720B707A1
:1002FC00008013858775EF1030600100B2402244F6
:10030C0041018280011106CE22CC0010EF40B02FAB
:10031C002326A4FE8327C4FE99C7B7070080138544
:10032C000779EF4010370100F2406244056182808A
:10033C00011106CE22CC0010EF40F02C2326A4FE97
:10034C008325C4FEB707008013850779EF60002171
:0A035C000100F24062440561828056
:1003680050726F6772616D2066696E697368656443
:100378002100000000000000000000000000000054
:100388000000000000000000000000000000000065
:100398000000000000000000000000000000000055
:1003A8000000000000000000000000000000000045
:1003B8000000000000000000000000000000000035
:1003C8000000000000000000000000000000000025
:1003D80000000000E4034020000000006C69626730
:1003E8006C6F737300000000B02340205625402036
:1003F8003A2540200000000000000000502840205E
:10040800842840203824402012254020AE25402052
:1004180060264020000000000000000000000000EE
:1004280000000000000000000000000000000000C4
:100438000000000012274020E422402000000000B5
:100448000000000000000000000000007C3A40208E
:10045800E23A4020E23A40208E3A4020E23A4020F8
:10046800E23A4020E23A4020A03A4020E23A4020D6
:10047800E23A4020E23A4020B23A4020E23A4020B4
:10048800E23A4020E23A4020E23A4020C43A402092
:10049800C43A4020C43A4020C43A4020C43A4020DC
:1004A800C43A4020C43A4020C43A4020C43A4020CC
:1004B800C43A4020C43A4020C43A4020C43A4020BC
:1004C800C43A4020C43A4020C43A4020443B40202B
:1004D800763E40205A3E4020000000000000000008
:1004E8000000000000000000263C40200000000042
:1004F800063E4020303E4020000000000000000082
:1005080000000000000000000000000000000000E3
:100518000000000000000000CA3E4020000000006B
:1005280000000000000000000000000000000000C3
:10053800E63E4020563F40209C3F4020024040205D
:100548007840402092404020A6404020C0404020B3
:10055800D44040203641402098414020F841402076
:10056800184240205E4240208C424020AA4240204F
:10057800CA424020C246402000000000000000009F
:100588000000000000000000000000000000000063
:100598001448402000000000D6484020264940204A
:1005A8000000000000000000A649402076494020D5
:1005B80030454020CE4440200000000000000000EC
:1005C8000000000000000000CE4940206A4A402098
:1005D800064B40207A4B402001000000200000001C
:1005E800001BB70000366E01010000001F0000006C
:1005F800030000003F000000010000002000000090
:1006080000366E01006CDC02030000001F000000D1
:10061800020000003F000000010000001000000080
:10062800808D5B00001BB700000000001F00000069
:10063800030000003F00000001000000100000005F
:10064800001BB70000366E01010000001F0000000B
:10065800020000003F000000010000001000000040
:1006680000366E01006CDC02030000001F00000071
:10067800020000001F000000010000000800000048
:10068800808D5B00001BB700000000001F00000009
:10069800030000001F000000010000000800000027
:1006A800001BB70000366E01010000001F000000AB
:1006B800020000001F000000010000000800000008
:1006C80000366E01006CDC02030000001F00000011
:1006D800020000000F0000000100000004000000FC
:1006E800808D5B00001BB700000000001F000000A9
:1006F800030000000F0000000100000004000000DB
:10070800001BB70000366E01010000001F0000004A
:10071800020000000F0000000100000004000000BB
:1007280000366E01006CDC02030000001F000000B0
:1007380002000000070000000100000002000000A5
:10074800808D5B00001BB700000000001F00000048
:10075800020000000F00000001000000020000007D
:10076800001BB70000366E01010000001F000000EA
:10077800010000000F00000001000000020000005E
:1007880000366E01006CDC02030000001F00000050
:100798000100000007000000020000000100000046
:1007A800808D5B00001BB700000000001F000000E8
:1007B8000100000007000000020000000100000026
:1007C800001BB70000366E01010000001F0000008A
:1007D800010000000300000002000000010000000A
:1007E80000366E01006CDC02030000001F000000F0
:1007F80003000000FFFFFFFF0400000001000000ED
:10080800808D5B00001BB700000000001F00000087
:1008180003000000000000000400000001000000C8
:10082800001BB70000366E01010000001F00000029
:1008380003000000FFFFFFFF0400000001000000AC
:1008480000366E01006CDC02030000001F0000008F
:1008580002000000FFFFFFFF06000000010000008B
:10086800808D5B00AAC2A2000000000023000000E7
:100878000100000002000000060000000100000066
:10088800AAC2A200001BB700000000001700000069
:1008980003000000FFFFFFFF06000000010000004A
:1008A800001BB7000024F400010000002F00000026
:1008B80003000000FFFFFFFF06000000010000002A
:1008C8000024F40080A812010100000017000000B5
:1008D80002000000FFFFFFFF06000000010000000B
:1008E80080A8120155854501020000002300000080
:1008F80002000000FFFFFFFF0800000001000000E9
:10090800808D5B00001BB700000000001F00000086
:1009180003000000FFFFFFFF0800000001000000C7
:10092800001BB70000366E01010000001F00000028
:1009380002000000FFFFFFFF0800000001000000A8
:1009480000366E01006CDC02030000001F0000008E
:1009580001000000FFFFFFFF0A0000000100000087
:10096800808D5B00007C92000000000027000000E2
:1009780003000000FFFFFFFF0A0000000100000065
:10098800007C9200001BB70000000000130000006C
:1009980002000000FFFFFFFF0A0000000100000046
:1009A800001BB70000F82401010000002700000028
:1009B80002000000FFFFFFFF0A0000000100000026
:1009C80000F8240100366E01010000001300000049
:1009D80001000000FFFFFFFF0A0000000100000007
:1009E80000366E0100F049020300000027000000F5
:1009F80001000000FFFFFFFF0C00000001000000E5
:100A0800808D5B0000127A00000000002F000000BB
:100A180003000000FFFFFFFF0C00000001000000C2
:100A280000127A00001BB700000000001700000049
:100A380002000000FFFFFFFF0C00000001000000A3
:100A4800001BB7000024F400010000002F00000084
:100A580002000000FFFFFFFF0C0000000100000083
:100A68000024F40000366E010100000017000000A9
:100A780001000000FFFFFFFF0C0000000100000064
:100A880000366E0180C3C901030000002F0000007A
:100A980001000000FFFFFFFF0C0000000100000044
:100AA80080C3C9010048E801030000002F000000CE
:100AB80001000000FFFFFFFF0E0000000100000022
:100AC800808D5B00B6A168000000000037000000C0
:100AD80003000000FFFFFFFF0E0000000100000000
:100AE800B7A16800001BB700000000001B00000051
:100AF80002000000FFFFFFFF0E00000001000000E1
:100B0800001BB7006D43D100010000003700000052
:100B180002000000FFFFFFFF0E00000001000000C0
:100B28006E43D10000366E01010000001B0000007A
:100B380001000000FFFFFFFF0E00000001000000A1
:100B480000366E01DB86A2010300000037000000BA
:100B580001000000FFFFFFFF10000000010000007F
:100B6800808D5B00001BB700000000001F00000024
:100B780002000000FFFFFFFF10000000010000005E
:100B8800001BB70000366E01010000001F000000C6
:100B980001000000FFFFFFFF12000000010000003D
:100BA800808D5B00AAC2A2000000000023000000A4
:100BB80002000000FFFFFFFF12000000010000001C
:100BC800ABC2A200001BB70000000000110000002B
:100BD80001000000FFFFFFFF1200000001000000FD
:100BE800001BB700558545010100000023000000E7
:100BF80001000000FFFFFFFF1400000001000000DB
:100C0800808D5B00007C920000000000270000003F
:100C180002000000FFFFFFFF1400000001000000B9
:100C2800007C9200001BB7000000000013000000C9
:100C380001000000FFFFFFFF14000000010000009A
:100C4800001BB70000F82401010000002700000085
:100C580001000000FFFFFFFF160000000100000078
:100C6800808D5B00E82A8500000000002B00000052
:100C780002000000FFFFFFFF160000000100000057
:100C8800E92A8500001BB7000000000015000000DD
:100C980001000000FFFFFFFF160000000100000038
:100CA800001BB700D1550A01010000002B0000000D
:100CB80001000000FFFFFFFF180000000100000016
:100CC800808D5B0000127A00000000002F000000F9
:100CD80002000000FFFFFFFF1800000001000000F5
:100CE80000127A00001BB700000000001700000087
:100CF80001000000FFFFFFFF1800000001000000D6
:100D0800001BB7000024F400010000002F000000C1
:100D180001000000FFFFFFFF1A00000001000000B3
:100D2800808D5B0027AE70000000000033000000DB
:100D380002000000FFFFFFFF1A0000000100000092
:100D480028AE7000001BB70000000000190000006A
:100D580001000000FFFFFFFF1A0000000100000073
:100D6800001BB7006658E1000100000033000000D6
:100D780001000000FFFFFFFF1C0000000100000051
:100D8800808D5B00B6A168000000000037000000FD
:100D980002000000FFFFFFFF1C0000000100000030
:100DA800B7A16800001BB700000000001B0000008E
:100DB80001000000FFFFFFFF1C0000000100000011
:100DC800001BB7006D43D100010000003700000090
:100DD80001000000FFFFFFFF1E00000001000000EF
:100DE800808D5B0000A86100000000003B0000004F
:100DF80002000000FFFFFFFF1E00000001000000CE
:100E080000A86100001BB700000000001D000000E2
:100E180001000000FFFFFFFF1E00000001000000AE
:100E2800001BB7000050C300010000003B00000099
:100E380001000000FFFFFFFF20000000010000008C
:100E4800808D5B00001BB700000000001F00000041
:100E580001000000FFFFFFFF9E4E4020424F402050
:100E68000E534020065A4020845A40209C5A402065
:100E7800B85A4020065B4020EA5A4020225B4020B6
:100E8800585B4020465D40200C5C4020245C40209C
:100E9800405C40208E5C4020725C4020AA5C402070
:100EA800E05C402030574020F056402076574020E4
:100EB800A0574020CC57402012584020525840207C
:100EC80092584020D8584020185940207A5940203C
:100ED800C4594020CA5B4020525D4020725D4020CA
:100EE800DA6340207A61402056604020BA61402091
:100EF80010624020306240203A5F4020585F402016
:100F0800765F4020AE5F4020E45F40201E604020B6
:100F180086604020D0604020006140204A61402027
:100F280000000080FC4B4020804C4020FC4C4020BE
:100F3800704D402086544020B4544020C65D402067
:080F4800E26740200068402030
:100F8000411106C622C400082128B7074020138556
:100F900087366D2281473E85B240224441018280DE
:100FA0003755341213058567B75534129385856715
:100FB0008562337355001353C30093020008B37363
:100FC000550093D373003346730093020010337EB1
:100FD0005500135E8E0093020002B37E550093DE2F
:100FE0005E00B376DE01A142337355001353330024
:100FF00013771300358E398E13460600B7020400AE
:1010000033F355001353230193020008B3F3550043
:1010100093D37300B3477300856233FE5500135EAC
:10102000CE0093020040B3FE550093DEAE0033784D
:10103000DE019302001033F3550013538300A142E5
:10104000B3F3550093D33300B3787300B3C70701EC
:10105000B3C7170193C7170006053E958605B295DD
:101060008280011126CA4AC806CE22CC4EC652C47E
:10107000AA842E8901C51C4D91E3E5299C4C80442E
:1010800099E32685FD2197F7FFFF93876731631C5E
:10109000F402C0408357C400A18BB1C71C48A1C74C
:1010A000FD59294A1C4483450900FD17B1E91CC4B8
:1010B00063DE07062286A94526857920FD57630849
:1010C000F502294535A097F7FFFF9387672F631433
:1010D000F4008044C1B797F7FFFF9387672AE31BAB
:1010E000F4FAC04445BFA2852685392A55D97D55D5
:1010F000F2406244D2444249B249224A05618280A8
:101100001CC4050963D70700184C63CBE70063894B
:1011100045011C401387170018C02380B70059B73A
:10112000228626851520E31F35F7D1B71C4013878B
:10113000170018C029472380E70061B7AA8517F573
:10114000BF5F0325256631BF011122CC26CA4AC8DC
:1011500006CE4EC6AA842E89328401C51C4D91E369
:10116000092997F7FFFF9387A7236319F406C04067
:101170001C4C1CC48357C400A18BC9C31C48BDCFE1
:101180001C4808409379F90F1379F90F1D8D5C48BD
:101190006346F500A2852685C1242DE51C4405057E
:1011A000FD171CC41C401387170018C0238037018B
:1011B0005C486389A7008357C400858B81CBA9470E
:1011C0006316F900A2852685412C0DEDF24062449C
:1011D000D244B2494A8542490561828097F7FFFFB0
:1011E0009387071E6314F400804459B797F7FFFFF5
:1011F00093870719E31EF4F6C0449DBFA285268598
:1012000021203DDD7D59D9B7411122C426C24AC0F3
:1012100006C697F4BF5F83A4E4582A892E8489C444
:101220009C4C99E32685B12697F7FFFF93874717D4
:101230006317F402C0408317C4001397070193F6A5
:1012400087004183ADEA9376070195EA254723207D
:10125000E90093E707042316F4007D5571A897F77A
:10126000FFFF9387E7156314F4008044E9B797F70D
:10127000FFFF9387E710E310F4FCC0446DBF118BB0
:101280000DC74C5889C9930744046384F5004A8507
:10129000C52B232A04028357C4002322040093F79A
:1012A000B7FD2316F4001C481CC08357C40093E705
:1012B00087002316F4001C4881EF8357C4001307EE
:1012C000002093F707286385E700A2854A85BD21A2
:1012D0008317C4001397070193F6170041839DC23B
:1012E000544823240400B306D04014CC14480145CC
:1012F00081E61377070831FFB24022449244024945
:101300004101828093762700014691E2504810C443
:10131000F1BF83D7C500011122CC26CA06CE4AC828
:101320004EC613F78700AA842E8475E3D84163471D
:10133000E000B8416344E000014575A858546DDFF2
:10134000856603A90400F58F23A00400A5CF684893
:101350008357C400918B99C75C401D8D5C5899C31D
:101360003C401D8D5C540C502A8681462685829710
:10137000FD570357C400631DF5009440F54763E330
:10138000D708B70740208507B3D7D700858BBDCBDB
:101390001C48232204001CC085677D8F19C7FD5798
:1013A0006314F5009C4091E368C84C5823A02401C5
:1013B000C1D5930744046384F5002685D121232AEF
:1013C00004029DBF0C508546014626850297FD57B5
:1013D000E310F5F89C40ADDF75476385E70059479A
:1013E0006395E70023A0240181BF8357C40093E7DE
:1013F00007042316F400F2406244D2444249B24941
:1014000005618280136707042316E400EDB783A902
:101410000501E38309F203A905008D8B23A03501A3
:1014200033093941014791E3D84918C4E35620F103
:101430001C540C50CA864E8626858297634AA000AB
:101440008357C4007D5593E707042316F40065B75E
:10145000AA993309A940D9BF9C49B9CF011122CC1F
:1014600006CE2A8411C51C4D81E72EC61922B2452D
:1014700097F7FFFF9387C7F2639BF5004C40839774
:10148000C50095C722856244F240056159B597F7BA
:10149000FFFF9387E7F26394F5000C44CDB797F70D
:1014A000FFFF9387E7EDE39CF5FC4C44C9BFF24096
:1014B000624401450561828001458280411122C458
:1014C00006C62A842316B5002317C500232005006D
:1014D00023220500232405002322050623280500D6
:1014E000232A0500232C0500214681451305C50547
:1014F000E52497070000938767535CD097070000A7
:101500009387C7551CD4970700009387075A5CD46C
:10151000970700009387C75CB24000D01CD82244D4
:101520004101828097050000938545F3B1A24111E6
:1015300026C2130680069384F5FFB384C4024AC012
:101540002E8922C406C693854407E12E2A8419C930
:101550002320050023222501310508C413868406B3
:1015600081459D2CB240228522449244024941018A
:1015700082801C4DBDE3411122C406C697070000BE
:10158000938787FA1CD523240504232605042328E2
:1015900005049707000083A767992A846314F50060
:1015A00085471CCD22851D2848C02285052808C4F2
:1015B00022852D2048C44840014691450137084402
:1015C0000546A545E53D48440946C945C53D85470D
:1015D000B2401CCC2244410182808280411126C24B
:1015E0009704000083A484949C4C4AC006C622C47D
:1015F0002A8999E32685B53F938484048044DC409E
:10160000FD1763D607009C40B1CF8440C5BF0317C8
:10161000C40031E7C1778507232204062320040094
:1016200023220400232404005CC423280400232A6A
:101630000400232C0400214681451305C405692AB2
:10164000232A0402232C0402232404042326040452
:10165000B24022852244924402494101828013040F
:10166000840679BF91454A85D93588C02A8451FDC1
:10167000B1472320F900E9BF797122D44AD04ECE78
:1016800052CC5AC85EC606D626D256CA2A892E8A97
:10169000130485048149054BFD5B0444832A4400FF
:1016A000FD1A63D00A0200406DF8B25022549254E1
:1016B0000259624AD24A424BB24B4E85F2494561C9
:1016C000828083D7C400637BFB008397E400638739
:1016D0007701A6854A85029AB3E9A9009384840616
:1016E000C1B75971CAD02E898395E500A2D4A6D27C
:1016F00086D63284B68463DC05008317C90023A034
:10170000040093F707088DE39307004005A030001D
:101710000D29E34405FE3247BD67F98F7977BA9703
:1017200093B717009CC0CDB793070004B6501CC0F8
:1017300026549654065901456561828083D7C500B9
:10174000011122CC06CE26CA4AC8898B2E8489CFA5
:10175000930774041CC01CC885475CC8F2406244EF
:10176000D244424905618280740030002A89953F45
:10177000A245AA844A85752201ED8317C40013F798
:10178000072069FFF19B93E727002316F400C9B7F0
:1017900097070000938747D92324F9028357C40091
:1017A00008C008C893E707082316F400A2475CC8DE
:1017B000B24789CF8315E4004A85652E01C9835756
:1017C000C400F19B93E717002316F4000355C400EF
:1017D000C98C2316940059B73D432A876373C3020B
:1017E0009377F700BDEFADE5937606FF3D8ABA9695
:1017F0000CC34CC30CC74CC74107E36BD7FE11E2C7
:101800008280B306C3408A069702000096966780DE
:10181000A6002307B700A306B7002306B700A30559
:10182000B7002305B700A304B7002304B700A30340
:10183000B7002303B700A302B7002302B700A30138
:10184000B7002301B700A300B7002300B7008280D0
:1018500093F5F50F93968500D58D93960501D58D5B
:1018600061B7939627009702000096968682E780DC
:1018700086FA9680C1171D8F3E96E374C3F8A5B70C
:10188000C5C183A7C5FF011122CC06CE1384C5FFB5
:1018900063D307003E942AC62D2E17F7BF5F1307A8
:1018A000E7F21C43324581EB2322040000C362446B
:1018B000F240056105A6637DF4001040B306C40044
:1018C0006396D7009443DC43B29614C05CC0F9BF62
:1018D0003E87DC4399C3E37DF4FE14433306D7000F
:1018E000631F86001040B29614C33306D700E390FE
:1018F000C7FC9043DC43B29614C35CC34DBF637511
:10190000C400B1471CC165B71040B306C40063965C
:10191000D7009443DC43B29614C05CC040C341BFBF
:101920008280011126CA93843500F1984AC806CEF8
:1019300022CC4EC6A104B1472A8963F4F404B14411
:1019400063E3B4044A85712497F6BF5F938606E883
:1019500098423A8421E417F4BF5F130464E71C4003
:1019600089E781454A85512808C0A6854A857120A6
:10197000FD5963183507B1472320F9004A85992C92
:1019800031A0E3DF04FAB1472320F9000145F2401A
:101990006244D2444249B249056182801C40858F2D
:1019A00063CE07022D466376F6001CC03E9404C049
:1019B00029A05C40631287029CC24A85212C130532
:1019C000B4009307440061993307F540E301F5FC47
:1019D0003A94898F1CC065BF5CC3C5B7228740405D
:1019E00095BF130435007198E30385FCB305A4404B
:1019F0004A852120E31D35FBBDBF411122C42A8445
:101A00002E8597F7BF5F23A707DC06C6652CFD5719
:101A10006318F50097F7BF5F83A7C7DB91C31CC0AE
:101A2000B240224441018280411122C42E84839518
:101A3000E50006C64D22634905007C48AA977CC88C
:101A4000B2402244410182808357C4007D777D17D4
:101A5000F98F2316F400EDB783D7C500011122CC0E
:101A600026CA4AC84EC606CE93F70710AA842E840B
:101A70003289B68991C78395E500894601460D22D2
:101A80008357C4007D777D17F98F8315E4002316F3
:101A9000F4006244F240CE864A86B2494249268525
:101AA000D24405613DA8411122C42E848395E500EE
:101AB00006C6FD20FD570357C400631BF500FD77E4
:101AC000FD17F98F2316F400B240224441018280B1
:101AD0008567D98F2316F40068C8FDB78395E500A4
:101AE00015A8411122C42A842E85B285368697F71F
:101AF000BF5F23A107CE06C6A924FD576318F500D2
:101B000097F7BF5F83A707CD91C31CC0B2402244A3
:101B100041018280411122C42A842E8597F7BF5F3C
:101B200023AA07CA06C6CD20FD576318F50097F70C
:101B3000BF5F83A727CA91C31CC0B24022444101A2
:101B40008280411122C42A842E85B28597F7BF5F17
:101B500023A207C806C6D128FD576318F50097F7DA
:101B6000BF5F83A727C791C31CC0B2402244410175
:101B70008280411122C42A842E8597F7BF5F23AB50
:101B800007C406C6F120FD576318F50097F7BF5F3D
:101B900083A747C491C31CC0B24022444101828044
:101BA000411122C42A842E85B285368697F7BF5FFD
:101BB00023A207C206C66D28FD576318F50097F7E4
:101BC000BF5F83A727C191C31CC0B240224441011B
:101BD000828082808280411122C42A842E85B2852F
:101BE000368697F7BF5F23A707BE06C67D20FD5741
:101BF0006318F50097F7BF5F83A7C7BD91C31CC0EB
:101C0000B240224441018280011106CE22CC001054
:101C10002326A4FE5D222A87930780051CC3FD5757
:101C20003E85F240624405618280011106CE22CCDD
:101C300000102326A4FE2324B4FE41222A87930702
:101C400080FA1CC3FD573E85F240624405618280E4
:101C5000011122CE00102326A4FE8327C4FEFD1707
:101C600093B7170093F7F70F3E85724405618280A2
:101C7000011106CE22CC00102326A4FE2324B4FE9C
:101C80002322C4FE1D2A2A87930780051CC3FD5703
:101C90003E85F240624405618280011106CE22CC6D
:101CA00000102326A4FE2324B4FE2322C4FE3122E6
:101CB0002A87930780051CC3FD573E85F240624486
:101CC00005618280797106D622D40018232EA4FCE7
:101CD000B707008083A7477A2326F4FE138701CD38
:101CE0009387014D6314F700FD57B9A0B707008033
:101CF00003A7477A8327C4FD3E979387014D6376F8
:101D0000F702B707008003A7477A8327C4FD3E97F1
:101D1000B707008023A2E77A8325C4FD0325C4FE0C
:101D2000EFE0AFB68327C4FE01A8B7070080138792
:101D3000014D23A2E77AFD573E85B25022544561FA
:101D40008280797106D622D40018232EA4FC232C7D
:101D5000B4FC232AC4FC0327C4FD85476309F700AC
:101D6000A9282A87930780051CC3FD572DA8832720
:101D700084FD2324F4FE232604FE39A8032784FED1
:101D80008327C4FEBA9783C707003E85892E832721
:101D9000C4FE85072326F4FE0327C4FE832744FDE3
:101DA000E36EF7FC81473E85B25022544561828044
:101DB000AA85814601460145E9A017F5BF5F0325C5
:101DC000659E8280411122C406C697070000938752
:101DD00047132A8499C381451D2217F5FFFF032568
:101DE000E5141C5591C382972285EF409023411141
:101DF00022C426C217E4FFFF1304C44F97E4FFFF79
:101E00009384444F058C06C6098411E4B2402244F1
:101E10009244410182807D1493172400A6979C432D
:101E20008297E5B7411122C426C217E4FFFF1304CD
:101E3000644B97E4FFFF9384E44A818C4AC006C652
:101E4000898401496315990217E4FFFF130484494B
:101E500097E4FFFF93840449818C89840149631DC1
:101E60009900B240224492440249410182801C40C0
:101E7000050911048297F9B71C40050911048297DE
:101E8000F9BFAA8817F5BF5F130505951C4191EFAF
:101E900017F7BF5F1307079518C113050000BA872E
:101EA00009C51C412324F708BA87D8437D487D55CE
:101EB0006346E804638D080203A8870863000804EA
:101EC00013152700429510C1032308100546331649
:101ED000E6003363C300232068102320D508894619
:101EE0006397D80083264810558E2322C810930686
:101EF00017000A07D4C3BA978CC70145828079714D
:101F000056CA5AC85EC662C406D622D426D24AD061
:101F10004ECE52CC66C22A8BAE8A97FBBF5F938BA4
:101F2000AB8B054C83A40B0081CCC04083A98408F3
:101F30001309F4FF0A04338A89002694635F0900B9
:101F4000B250225492540259F249624AD24A424B48
:101F5000B24B224C924C45618280638C0A0063969E
:101F600009007D19711A7114D1BF8327CA07E39A3A
:101F700057FFD8405C407D176318270323A2240134
:101F8000EDD383AC44006388090083A6091033179E
:101F90002C01F98E89EE8297D84083A70B00E313BA
:101FA00097F9E380F4FCBDBF23220400D1BF83A6D0
:101FB00049108325CAFF758F01E75A858297E9BFCB
:101FC0002E858297D1BF011106CE22CC0010B70713
:101FD000008083A7877DA9EFB7070080054723AC62
:101FE000E77CB70740201387C72EB70740209387A9
:101FF000072E63F1E704B70740209387072E2326B7
:10200000F4FE31A88327C4FE9C432324F4FE8327D7
:1020100084FE82978327C4FE91072326F4FE0327BC
:10202000C4FEB70740209387C72EE31DF7FC21A00D
:10203000010011A00100F24062440561828001119B
:1020400006CE22CC0010B707008083A7C77DA9EF7A
:10205000B7070080054723AEE77CB707402013870A
:10206000072FB70740209387072F63F1E704B707CF
:1020700040209387072F2326F4FE31A88327C4FE30
:102080009C432324F4FE832784FE82978327C4FE87
:1020900091072326F4FE0327C4FEB7074020938749
:1020A000072FE31DF7FC21A0010011A00100F24061
:1020B000624405618280411106C622C400082137AE
:1020C0000100B240224441018280411106C622C46F
:1020D0000008B5370100B24022444101828001115D
:1020E00006CE22CC00102326A4FE8325C4FEB7070B
:1020F0000080138587752D28AA873E85F2406244AB
:1021000005618280011106CE22CC00102326A4FE98
:102110002324B4FE8327C4FE9C439C43832584FE72
:102120000325C4FE82970100F2406244056182806B
:10213000011106CE22CC00102326A4FE2324B4FED7
:102140008327C4FE9C43DC43832584FE0325C4FE11
:102150008297AA873E85F240624405618280011120
:1021600006CE22CC00102326A4FE2324B4FE83270F
:10217000C4FE9C43DC4B832584FE0325C4FE82976A
:10218000AA873E85F240624405618280011122CE19
:1021900000102326A4FE0327C4FEB7070080938700
:1021A000C77A6315F700B707000211A081473E8583
:1021B000724405618280011122CE00102326A4FE04
:1021C0000327C4FEB70700809387C77A6314F7001C
:1021D000894711A081473E857244056182800111C3
:1021E00022CE00102326A4FE2324B4FE832784FEDF
:1021F00091E7B70700809387870821A8032784FE0B
:1022000085476317F700B70700809387870811A0F9
:1022100081473E85724405618280011122CE001003
:102220002326A4FE2324B4FE832784FE99E38D474E
:1022300009A8032784FE85476314F7009D4711A072
:1022400081473E857244056182805D7186C6A2C465
:10225000CAC2CEC052DE56DC5ADA5ED862D666D426
:102260008008232EA4FA8327C4FB3E850537232646
:10227000A4FC0327C4FCB167F117BA979C4323243D
:10228000F4FC0327C4FCB167E117BA979C432322EF
:10229000F4FC0327C4FCB167F117BA979C430327EA
:1022A00084FCE318F7FC832784FC3E8C814C931953
:1022B0000C000149832744FC3E8A814A336B490163
:1022C000B3EB59015A87DE873A85BE85B64026446E
:1022D00016498649725AE25A525BC25B325CA25C72
:1022E00061618280797106D622D44AD24ED000181C
:1022F000232EA4FC232CB4FC2328C4FC232AD4FCC6
:102300008327C4FD2326F4FE8327C4FE3E85BD3DFE
:102310002324A4FE832784FD8E073E87832784FE23
:102320003E9791679107BA973E87FD571CC3832755
:1023300084FD8E073E87832784FE3E979167BA9778
:102340003E87832704FD1CC3832744FD13D9070060
:102350008149832784FD8E073E87832784FE3E972D
:1023600091679107BA974A8798C381473E85B250D3
:1023700022541259825945618280011106CE22CC25
:102380000010232604FEF32740F12326F4FE8327C2
:10239000C4FE3E85EF40202A2324A4FE032584FEAC
:1023A000EF400027AA873E85F240624405618280A3
:1023B000397106DE22DC80002326A4FC0325C4FC40
:1023C000DD3B2324A4FE8327C4FC2322F4FE8327C1
:1023D00044FEDC43A9EF232604FE81A08325C4FE2E
:1023E0000325C4FCED3B2320A4FE8325C4FE032566
:1023F000C4FC2535232EA4FC832704FE9C43DC4F1C
:102400008326C4FC01468325C4FD032504FE829770
:102410008327C4FE85072326F4FE0327C4FE8327F3
:1024200084FEE34DF7FA832744FE0547D8C3010035
:10243000F250625421618280397106DE22DC800014
:102440002326A4FC2324B4FC2322C4FC2320D4FC94
:10245000FD572326F4FEEF1020482320A4FE23245A
:1024600004FE213F232EA4FC0325C4FCA933232C06
:10247000A4FC032704FE85476308F700832704FEB6
:1024800081C78327C4FE49A0232204FE91A083258F
:1024900044FE0325C4FC5133232AA4FC832544FEB7
:1024A0000325C4FC2D3B2324A4FE0327C4FD83275E
:1024B00084FE6318F700032784FC832744FD630030
:1024C000F702232404FE832744FE85072322F4FE1B
:1024D000032744FE832784FDE34BF7FA11A0010094
:1024E000832784FE85C3832784FE9C43DC4F832699
:1024F00004FC032644FC832584FC032584FE829788
:102500002326A4FE8327C4FE3E85F2506254216137
:102510008280797122D60018232EA4FC232CB4FCCF
:10252000232AC4FC2328D4FCFD572326F4FE83274A
:10253000C4FE3E85325445618280011106CE22CC14
:1025400000102326A4FEEF102039AA873E85F24012
:10255000624405618280797106D622D40018232E48
:10256000A4FC232CB4FCFD572326F4FE3935232488
:10257000A4FE832784FE95C3032784FD854763E07B
:10258000E702832784FE9C43DC43832584FD0325E7
:1025900084FE82972326A4FE21A0010011A0010041
:1025A0008327C4FE3E85B250225445618280397132
:1025B00006DE22DC80002326A4FC2324B4FCFD5785
:1025C0002326F4FE832784FCC9C7232404FE753325
:1025D0002320A4FE0325C4FCF93E232EA4FC2322C1
:1025E00004FE91A0832544FE0325C4FC3D31232C29
:1025F000A4FC832544FE0325C4FCD5362324A4FE75
:10260000032704FE832784FE6318F700032784FC56
:10261000832784FD6300F702232404FE832744FEFE
:1026200085072322F4FE032744FE8327C4FDE34BE2
:10263000F7FA11A00100832784FE81CF832784FE4F
:102640009C43DC53832584FC032584FE8297232648
:10265000A4FE8327C4FE3E85F2506254216182802D
:10266000397106DE22DC80002326A4FC2324B4FC7E
:10267000FD572326F4FE832784FCC9C7232404FEC8
:10268000ED392320A4FE0325C4FC3536232EA4FCFB
:10269000232204FE91A0832544FE0325C4FCB53EFD
:1026A000232CA4FC832544FE0325C4FC0D3E2324D7
:1026B000A4FE032704FE832784FE6318F700032784
:1026C00084FC832784FD6300F702232404FE832710
:1026D00044FE85072322F4FE032744FE8327C4FD1E
:1026E000E34BF7FA11A00100832784FE81CF8327F3
:1026F00084FE9C439C57832584FC032584FE82979B
:102700002326A4FE8327C4FE3E85F2506254216135
:102710008280797106D622D40018232EA4FC232CA3
:10272000B4FC232AC4FCFD572326F4FE8327C4FDF2
:102730002324F4FE0325C4FDEFF05FA52322A4FEAD
:10274000032784FD91476300F70C032784FD91471D
:1027500063C0E70E032784FD8D476305F706032753
:1027600084FD8D4763C6E70C032784FD8547630816
:10277000F700032784FD89476302F70255A88327E2
:1027800044FDCDCB032584FEC9342A87AE8783263A
:1027900044FD98C2DCC2232604FE69A8832744FDB9
:1027A000C1CF832744FD9C432320F4FE832704FEEE
:1027B0008A073E87832744FEBA9723A00700232673
:1027C00004FE9DA8832744FDB5CB832744FD9C438D
:1027D0002320F4FE832704FE8A073E87832744FED6
:1027E000BA973E8785471CC30F008004832704FEE9
:1027F0008A073E87832744FEBA979C432326F4FE2C
:10280000232604FE25A8232604FE832744FD8DCB22
:10281000832744FD9C432320F4FE832704FE8A077C
:102820003E87832744FEBA979C432326F4FE09A8DB
:10283000010001A8010031A0010021A0010011A0A8
:1028400001008327C4FE3E85B25022544561828038
:10285000797106D622D40018232EA4FC232CB4FCB4
:10286000EF305060AA872326F4FE9307C4FE3E860D
:1028700089450325C4FD713DAA873E85B250225487
:1028800045618280797106D622D40018232EA4FCDB
:10289000232CB4FCEF30105DAA872326F4FE9307A7
:1028A000C4FE3E868D450325C4FDA535AA873E8519
:1028B000B250225445618280011122CE001023269D
:1028C000A4FE0327C4FE938741816314F700814768
:1028D00011A0FD573E85724405618280011122CE10
:1028E00000102326A4FE0327C4FE938741816317AB
:1028F000F700B7470F009387072411A081473E8553
:10290000724405618280011122CE00102326A4FEAC
:102910000327C4FE938741816317F700B707008040
:102920009387870811A081473E85724405618280A4
:10293000011122CE00102326A4FE0327C4FE938794
:1029400041816314F700814711A081473E8572449D
:1029500005618280011122CE00102326A4FE832768
:10296000C4FE634CF000B70700800327C4FE0A07CB
:102970009387877ABA979C4311A081473E8572441A
:1029800005618280011122CE0010F32740F1232639
:10299000F4FE8327C4FE3E857244056182800111E6
:1029A00022CE0010A147F3A707302326F4FE010032
:1029B000724405618280011122CE0010A147F3B755
:1029C00007302326F4FE0100724405618280011164
:1029D00022CE0010A147F3A747302326F4FE0100C2
:1029E000724405618280011122CE0010A147F3B725
:1029F00047302326F4FE01007244056182800111F4
:102A000022CE001093070008F3A747302326F4FED8
:102A10000100724405618280011122CE00109307EB
:102A20000008F3B747302326F4FE01007244056125
:102A30008280011122CE0010856793870780F3A75B
:102A400047302326F4FE01007244056182800111A3
:102A500022CE0010856793870780F3B7473023267F
:102A6000F4FE0100724405618280797122D600185B
:102A7000232EA4FC8327C4FD0547B317F7002326A4
:102A8000F4FE8327C4FEF3A747302324F4FE01009D
:102A9000325445618280797122D60018232EA4FC1D
:102AA0008327C4FD0547B317F7002326F4FE8327C9
:102AB000C4FEF3B747302324F4FE010032544561CD
:102AC0008280011106CE22CC00102326A4FE2324EE
:102AD000B4FE13054006EF30B03C011106CE22CC07
:102AE00000102326A4FE2324B4FE1305800CEF302F
:102AF000303B5D7186C696C49AC29EC022DE2ADC37
:102B00002EDA32D836D63AD43ED242D046CE72CC25
:102B100076CA7AC87EC680081305C012EF305038D6
:102B20001D7186CE96CC9ACA9EC8A2C6AAC4AEC251
:102B3000B2C036DE3ADC3EDA42D846D672D476D21D
:102B40007AD07ECE80103D3D2A87B70700800A07E5
:102B50009387877ABA979C432326F4FA8327C4FA8B
:102B600085C70325C4FA45332324A4FA832784FAAE
:102B700083A7070E2322F4FA832784FA83A7870DFD
:102B8000832544FA0D4582970100F640E6425643FC
:102B9000C6433644264596450646F2566257D257F6
:102BA0004258B258225E925E025FF24F2561730076
:102BB0002030797106D622D40018232EA4FC232CB1
:102BC000B4FCC9332A87B70700800A079387877A3E
:102BD000BA979C432326F4FEF32720342324F4FEE3
:102BE0008327C4FE95C70325C4FE313B2322A4FEE0
:102BF000832784FE93F7F73F032744FE9387870ECE
:102C00008A07BA979C438325C4FD0325C4FE829797
:102C10000100B2502254456182801D7186CE96CC4F
:102C20009ACA9EC8A2C6AAC4AEC2B2C036DE3ADCF8
:102C30003EDA42D846D672D476D27AD07ECE801092
:102C400091332A87B70700800A079387877ABA9754
:102C50009C432326F4FA8327C4FA85C70325C4FAC4
:102C60005D312324A4FA832784FA83A7071423223F
:102C7000F4FA832784FA83A78713832544FA1D4532
:102C800082970100F640E6425643C6433644264545
:102C900096450646F2566257D2574258B258225EBF
:102CA000925E025FF24F256173002030011122CE47
:102CB00000102326A4FE2324B4FE01007244056103
:102CC0008280797106D622D40018232EA4FC232CEE
:102CD000B4FC4D39AA873E85B5392326A4FE0325C9
:102CE000C4FEEF10A02B2320A4FE2322B4FE032752
:102CF00004FE832744FE294581453306A700328818
:102D00003338E800B386B700B307D800BE863287F1
:102D1000B687BA853E860325C4FEEF10802E0100DB
:102D2000B250225445618280000000000000000083
:102D30000000000000000000000000000000000093
:102D40000000000000000000000000000000000083
:102D50000000000000000000000000000000000073
:102D60000000000000000000000000000000000063
:102D70000000000000000000000000000000000053
:102D8000197186DE96DC9ADA9ED8A2D6AAD4AED283
:102D9000B2D0B6CEBACCBECAC2C8C6C6F2C4F6C29B
:102DA000FAC07EDE0001F93E2A87B70700800A07D5
:102DB0009387877ABA979C432326F4FAF327203423
:102DC0002324F4FAF32710342322F4FAF3273034BF
:102DD0002320F4FAF3275030232EF4F88327C4FA83
:102DE000FDCB0325C4FAEFF01FB2232CA4F88327F0
:102DF00084FA93F7F73F232AF4F8832784FA63DEF3
:102E0000070A032744F9930700086312F702832790
:102E100084F983A787392326F4F8832784F983A7C5
:102E200007398325C4F8032544F982976DA0032749
:102E300044F9AD4763D7E7008327C4F993F7F70355
:102E40009DEF832684F9032744F9BA878607BA974A
:102E50008E07B69783A787092326F4F8832684F97B
:102E6000032744F9BA878607BA978E07B69783A7D0
:102E700007098325C4F8032544F98297A9A8832765
:102E8000C4F913F7F70389476317F704F327703082
:102E90002328F4F8832784F983A7C70D2326F4F8A1
:102EA000832704F99C432324F4F8832784F883259B
:102EB000C4F8032544F9829739A8032784F98327A6
:102EC00044F99387870E8A07BA979C43832544F970
:102ED0000325C4FA8297F650E6525653C653365429
:102EE000265596550656F6466647D6474648B6488E
:102EF000264E964E064FF25F0961730020300000A7
:102F000000000000000000000000000000000000C1
:102F100000000000000000000000000000000000B1
:102F200000000000000000000000000000000000A1
:102F30000000000000000000000000000000000091
:102F40000000000000000000000000000000000081
:102F50000000000000000000000000000000000071
:102F60000000000000000000000000000000000061
:102F700000000000000000001D7186CE96CC9ACAA9
:102F80009EC8A2C6AAC4AEC2B2C036DE3ADC3EDAE1
:102F900042D846D672D476D27AD07ECE8010EFF068
:102FA0007F9E2A87B70700800A079387877ABA9798
:102FB0009C432326F4FA8327C4FA8DC70325C4FA59
:102FC000EFF07F942324A4FA832784FA83A7872130
:102FD0002322F4FA832784FA83A70721832544FA5E
:102FE000414582970100F640E6425643C6433644C7
:102FF000264596450646F2566257D2574258B25871
:10300000225E925E025FF24F2561730020301D71D7
:1030100086CE96CC9ACA9EC8A2C6AAC4AEC2B2C078
:1030200036DE3ADC3EDA42D846D672D476D27AD050
:103030007ECE8010EFF01F952A87B70700800A0721
:103040009387877ABA979C432326F4FA8327C4FA96
:103050008DC70325C4FAEFF01F8B2324A4FA83271E
:1030600084FA83A707232322F4FA832784FA83A709
:103070008722832544FA454582970100F640E642BF
:103080005643C6433644264596450646F256625791
:10309000D2574258B258225E925E025FF24F2561CB
:1030A000730020301D7186CE96CC9ACA9EC8A2C6E7
:1030B000AAC4AEC2B2C036DE3ADC3EDA42D846D648
:1030C00072D476D27AD07ECE8010EFF0BF8B2A8772
:1030D000B70700800A079387877ABA979C4323260D
:1030E000F4FA8327C4FA8DC70325C4FAEFF0BF8131
:1030F0002324A4FA832784FA83A787242322F4FABB
:10310000832784FA83A70724832544FA49458297B5
:103110000100F640E6425643C643364426459645EE
:103120000646F2566257D2574258B258225E925E15
:10313000025FF24F2561730020301D7186CE96CC60
:103140009ACA9EC8A2C6AAC4AEC2B2C036DE3ADCD3
:103150003EDA42D846D672D476D27AD07ECE80106D
:10316000EFF05F822A87B70700800A079387877A84
:10317000BA979C432326F4FA8327C4FA8DC7032504
:10318000C4FAEFF04FF82324A4FA832784FA83A724
:1031900007262322F4FA832784FA83A78725832529
:1031A00044FA4D4582970100F640E6425643C64335
:1031B0003644264596450646F2566257D25742583F
:1031C000B258225E925E025FF24F2561730020309A
:1031D0001D7186CE96CC9ACA9EC8A2C6AAC4AEC29B
:1031E000B2C036DE3ADC3EDA42D846D672D476D267
:1031F0007AD07ECE8010EFF0EFF82A87B7070080F4
:103200000A079387877ABA979C432326F4FA832781
:10321000C4FA8DC70325C4FAEFF0EFEE2324A4FA15
:10322000832784FA83A787272322F4FA832784FA43
:1032300083A70727832544FA514582970100F6406A
:10324000E6425643C6433644264596450646F25660
:103250006257D2574258B258225E925E025FF24FD6
:103260002561730020301D7186CE96CC9ACA9EC807
:10327000A2C6AAC4AEC2B2C036DE3ADC3EDA42D83A
:1032800046D672D476D27AD07ECE8010EFF08FEF11
:103290002A87B70700800A079387877ABA979C43E3
:1032A0002326F4FA8327C4FA8DC70325C4FAEFF066
:1032B0008FE52324A4FA832784FA83A707292322EE
:1032C000F4FA832784FA83A78728832544FA55458F
:1032D00082970100F640E6425643C64336442645EF
:1032E00096450646F2566257D2574258B258225E69
:1032F000925E025FF24F2561730020301D7186CE11
:1033000096CC9ACA9EC8A2C6AAC4AEC2B2C036DEC5
:103310003ADC3EDA42D846D672D476D27AD07ECE25
:103320008010EFF02FE62A87B70700800A079387FF
:10333000877ABA979C432326F4FA8327C4FA8DC769
:103340000325C4FAEFF02FDC2324A4FA832784FAA0
:1033500083A7872A2322F4FA832784FA83A7072ADC
:10336000832544FA594582970100F640E6425643C8
:10337000C6433644264596450646F2566257D2570E
:103380004258B258225E925E025FF24F256173008E
:1033900020301D7186CE96CC9ACA9EC8A2C6AAC4F9
:1033A000AEC2B2C036DE3ADC3EDA42D846D672D47D
:1033B00076D27AD07ECE8010EFF0CFDC2A87B707A6
:1033C00000800A079387877ABA979C432326F4FAEA
:1033D0008327C4FA8DC70325C4FAEFF0CFD2232484
:1033E000A4FA832784FA83A7072C2322F4FA8327DD
:1033F00084FA83A7872B832544FA5D4582970100D1
:10340000F640E6425643C6433644264596450646B0
:10341000F2566257D2574258B258225E925E025F0D
:10342000F24F2561730020301D7186CE96CC9ACA6A
:103430009EC8A2C6AAC4AEC2B2C036DE3ADC3EDA2C
:1034400042D846D672D476D27AD07ECE8010EFF0B3
:103450006FD32A87B70700800A079387877ABA97BE
:103460009C432326F4FA8327C4FA8DC70325C4FAA4
:10347000EFF06FC92324A4FA832784FA83A7872D4A
:103480002322F4FA832784FA83A7072D832544FA9D
:10349000614582970100F640E6425643C6433644F2
:1034A000264596450646F2566257D2574258B258BC
:1034B000225E925E025FF24F2561730020301D7123
:1034C00086CE96CC9ACA9EC8A2C6AAC4AEC2B2C0C4
:1034D00036DE3ADC3EDA42D846D672D476D27AD09C
:1034E0007ECE8010EFF00FCA2A87B70700800A0748
:1034F0009387877ABA979C432326F4FA8327C4FAE2
:103500008DC70325C4FAEFF00FC02324A4FA832744
:1035100084FA83A7072F2322F4FA832784FA83A748
:10352000872E832544FA654582970100F640E642DE
:103530005643C6433644264596450646F2566257DC
:10354000D2574258B258225E925E025FF24F256116
:10355000730020301D7186CE96CC9ACA9EC8A2C632
:10356000AAC4AEC2B2C036DE3ADC3EDA42D846D693
:1035700072D476D27AD07ECE8010EFF0AFC02A8798
:10358000B70700800A079387877ABA979C43232658
:10359000F4FA8327C4FA8DC70325C4FAEFF0AFB657
:1035A0002324A4FA832784FA83A787302322F4FAFA
:1035B000832784FA83A70730832544FA69458297D5
:1035C0000100F640E6425643C6433644264596453A
:1035D0000646F2566257D2574258B258225E925E61
:1035E000025FF24F2561730020301D7186CE96CCAC
:1035F0009ACA9EC8A2C6AAC4AEC2B2C036DE3ADC1F
:103600003EDA42D846D672D476D27AD07ECE8010B8
:10361000EFF04FB72A87B70700800A079387877AAA
:10362000BA979C432326F4FA8327C4FA8DC703254F
:10363000C4FAEFF04FAD2324A4FA832784FA83A7BA
:1036400007322322F4FA832784FA83A7873183255C
:1036500044FA6D4582970100F640E6425643C64360
:103660003644264596450646F2566257D25742588A
:10367000B258225E925E025FF24F256173002030E5
:103680001D7186CE96CC9ACA9EC8A2C6AAC4AEC2E6
:10369000B2C036DE3ADC3EDA42D846D672D476D2B2
:1036A0007AD07ECE8010EFF0EFAD2A87B70700808A
:1036B0000A079387877ABA979C432326F4FA8327CD
:1036C000C4FA8DC70325C4FAEFF0EFA32324A4FAAC
:1036D000832784FA83A787332322F4FA832784FA83
:1036E00083A70733832544FA714582970100F6408A
:1036F000E6425643C6433644264596450646F256AC
:103700006257D2574258B258225E925E025FF24F21
:103710002561730020301D7186CE96CC9ACA9EC852
:10372000A2C6AAC4AEC2B2C036DE3ADC3EDA42D885
:1037300046D672D476D27AD07ECE8010EFF08FA4A7
:103740002A87B70700800A079387877ABA979C432E
:103750002326F4FA8327C4FA8DC70325C4FAEFF0B1
:103760008F9A2324A4FA832784FA83A70735232278
:10377000F4FA832784FA83A78734832544FA7545AE
:1037800082970100F640E6425643C643364426453A
:1037900096450646F2566257D2574258B258225EB4
:1037A000925E025FF24F2561730020301D7186CE5C
:1037B00096CC9ACA9EC8A2C6AAC4AEC2B2C036DE11
:1037C0003ADC3EDA42D846D672D476D27AD07ECE71
:1037D0008010EFF02F9B2A87B70700800A07938796
:1037E000877ABA979C432326F4FA8327C4FA8DC7B5
:1037F0000325C4FAEFF02F912324A4FA832784FA37
:1038000083A787362322F4FA832784FA83A707360F
:10381000832544FA794582970100F640E6425643F3
:10382000C6433644264596450646F2566257D25759
:103830004258B258225E925E025FF24F25617300D9
:1038400020301D7186CE96CC9ACA9EC8A2C6AAC444
:10385000AEC2B2C036DE3ADC3EDA42D846D672D4C8
:1038600076D27AD07ECE8010EFF0CF912A87B7073C
:1038700000800A079387877ABA979C432326F4FA35
:103880008327C4FA8DC70325C4FAEFF0CF8723241A
:10389000A4FA832784FA83A707382322F4FA83271C
:1038A00084FA83A78737832544FA7D4582970100F0
:1038B000F640E6425643C6433644264596450646FC
:1038C000F2566257D2574258B258225E925E025F59
:1038D000F24F256173002030011122CE0010F32732
:1038E00050302326F4FE8327C4FE93F7F7032326E4
:1038F000F4FE0327C4FE8D476303F7020327C4FECB
:103900008D4763E2E7020327C4FE8547630BF70098
:103910000327C4FE89476318F7008D4731A09147FC
:1039200021A0854711A081473E85724405618280B0
:10393000797122D60018232EA4FC232CB4FCF32783
:1039400050302326F4FE8327C4FE93F707FC23267A
:10395000F4FE832784FD2324F4FE0327C4FD91474E
:103960006305F7040327C4FD914763E8E7060327CF
:10397000C4FD8D4763E3E7060327C4FD8947637BE6
:10398000F7008327C4FDA1C70327C4FD854763094A
:10399000F702A1A0832784FE739077308327C4FEAB
:1039A00093E72700739057300DA8832784FE739008
:1039B00077308327C4FE93E737007390573031A8E0
:1039C000832784FE93E717007390573039A083272D
:1039D00084FEF19B73905730010001003254456121
:1039E0008280011122CE00102326A4FE0327C4FEEC
:1039F000FD4763C6E7020327C4FE8D476349F7020C
:103A00008327C4FE05473317F700C5779387878858
:103A1000F98FB337F00093F7F70F81EB09A803276D
:103A2000C4FE930700086314F700854719A001003E
:103A300081473E85724405618280797106D622D421
:103A40000018232EA4FC232CB4FC232AC4FC232618
:103A500004FE8327C4FD99E3FD5749A8032784FD8D
:103A6000FD4763E0E708832784FD13972700B70726
:103A7000402093874745BA979C438287832744FD1C
:103A800081C7EFE0DFF18DA0EFE0FFF2B1A883275F
:103A900044FD81C7EFE0BFF381A8EFE0DFF4A9A008
:103AA000832744FD81C7EFE09FF53DA8EFE0DFF6F7
:103AB00025A8832744FD81C7EFE0BFF735A0EFE0DD
:103AC0001FF91DA0832744FD99C7832784FD3E85E8
:103AD000EFE0BFF911A8832784FD3E85EFE0BFFB2F
:103AE00021A0FD572326F4FE8327C4FE3E85B25055
:103AF000225445618280797122D60018232EA4FCBD
:103B0000232CB4FC232AC4FC8327C4FD2326F4FE03
:103B1000032784FDAD4763C2E702832744FD91CFAD
:103B20000327C4FE832784FD9387870E8A07BA97ED
:103B3000032744FD98C3814711A0FD573E853254A9
:103B400045618280797106D622D40018232EA4FC08
:103B50008327C4FD2322F4FE832744FEDC43DDEFEC
:103B6000232604FEB9A0832644FE0327C4FEBA8799
:103B70008607BA978E07B69723A80708832644FEC0
:103B80000327C4FEBA878607BA978E07B69723AA7B
:103B90000708832644FE0327C4FEBA878607BA9720
:103BA0008E07B69723AC07088327C4FE8507232614
:103BB000F4FE0327C4FEFD47E3D7E7FA232404FEFF
:103BC0001DA0032744FE832784FE9387870E8A0760
:103BD000BA9737374020130727AC98C3832784FE52
:103BE00085072324F4FE032784FEAD47E3DBE7FCCF
:103BF000F32750302320F4FEB70740209387471364
:103C0000032704FE6318F700B7374020938507D8D1
:103C10000145393B832744FE0547D8C30100B25014
:103C2000225445618280797106D622D40018232E51
:103C3000A4FC232CB4FC232AC4FC2328D4FC232674
:103C400004FE8327C4FD2324F4FE032584FD513B99
:103C5000AA8799E3D5575DA2032784FD930700083F
:103C60006317F7009539AA8799C3CD5741AA8327CF
:103C700044FDB9CF032784FD93070008631FF700B5
:103C8000832784FE032744FD23A8E738832784FE87
:103C9000032704FD23ACE73885A2832684FE03278F
:103CA00084FDBA878607BA978E07B697032744FD27
:103CB00023A8E708832684FE032784FDBA878607A6
:103CC000BA978E07B697032704FD23ACE7082DA209
:103CD000032784FD930700086301F70C032784FD85
:103CE0009307000863C7E710032784FDFD4763C2FD
:103CF000E710032784FDC1476350F70C032784FDB9
:103D0000AD47630BF70A032784FDAD4763C3E70E96
:103D1000032784FD8D476308F700032784FD9D4733
:103D20006300F704F9A0832684FE032784FDBA8785
:103D30008607BA978E07B69737374020130727BBF9
:103D400023A8E708832684FE032784FDBA87860715
:103D5000BA978E07B697032704FD23AAE70869A838
:103D6000832684FE032784FDBA878607BA978E07C9
:103D7000B69737374020130727CC23A8E7088326B8
:103D800084FE032784FDBA878607BA978E07B69705
:103D9000032704FD23AAE70885A0832784FE37377D
:103DA00040201307C7CA23A8E738832784FE0327C8
:103DB00004FD23ACE73889A0832684FE032784FD15
:103DC000BA878607BA978E07B6973737402013070A
:103DD000A7AD23A8E708832684FE032784FDBA87BE
:103DE0008607BA978E07B697032704FD23AAE7082C
:103DF00021A0D1572326F4FE8327C4FE3E85B2506E
:103E0000225445618280011106CE22CC0010232667
:103E1000A4FE2324B4FE832784FE0546BE85032525
:103E2000C4FE2139AA873E85F24062440561828042
:103E3000011106CE22CC00102326A4FE2324B4FEBA
:103E4000832784FE0146BE850325C4FEFD36AA876E
:103E50003E85F240624405618280011106CE22CC8B
:103E600000102326A4FEEFF03FA7AA873E85F2406C
:103E7000624405618280011106CE22CC0010232607
:103E8000A4FE2324B4FE832784FE99EBB737402099
:103E9000938507D8032584FEEFF09FA981470DA0E5
:103EA000032784FE8547631CF700B767402093858E
:103EB0000770032584FEEFF0BFA7814711A0FD57CF
:103EC0003E85F240624405618280011122CE0010DD
:103ED0002326A4FE2324B4FE2322C4FE81473E856C
:103EE000724405618280397122DE80002326A4FCA1
:103EF000014581452324A4FE2326B4FEF32500B802
:103F00002322B4FEF32500B02320B4FEF32500B82D
:103F1000232EB4FC032544FE8325C4FDE310B5FE27
:103F2000832544FE2E888148931708000147832586
:103F300004FE2E868146B365C7002324B4FED58FC8
:103F40002326F4FE032784FE8327C4FE3A85BE851C
:103F5000725421618280797106D622D44AD24ED021
:103F60000018232EA4FC8327C4FD81E70149814961
:103F700021A80325C4FDEFE07F962326A4FE832716
:103F8000C4FE3E89FD87BE894A87CE873A85BE85B5
:103F9000B25022541259825945618280797106D6F5
:103FA00022D40018232EA4FC814701482320F4FECC
:103FB000232204FF0325C4FDEFE0FF942326A4FE83
:103FC0008327C4FE8DC78327C4FE83A7C71323247A
:103FD000F4FE832784FE81CF832784FE9C43F84729
:103FE000930704FE3E868545032584FE029703273A
:103FF00004FE832744FE3A85BE85B25022544561B3
:104000008280797106D622D426D20018232EA4FCF1
:104010002328B4FC232AC4FCFD572326F4FE0325E1
:10402000C4FDEFE05F8E2324A4FE832784FE8DCFA2
:10403000832784FE83A7C7132322F4FE832744FE2D
:1040400085C7832744FE9C43A44B0325C4FDEFE0B2
:10405000BF86AA87032604FD832644FDBE8503256B
:1040600044FE82942326A4FE8327C4FE3E85B250DC
:104070002254925445618280011122CE00102326E1
:10408000A4FEB70700809387C77A3E857244056116
:104090008280011122CE00102326A4FE9D473E857A
:1040A000724405618280011122CE00102326A4FEF5
:1040B000B70700809387C77A3E8572440561828086
:1040C000011122CE00102326A4FE8D473E857244A6
:1040D00005618280797106D622D40018232EA4FCB3
:1040E000232CB4FCFD572326F4FE0325C4FDEFE08A
:1040F0009F812324A4FE832784FE9DC7832784FEFB
:1041000083A7C70D2322F4FE832744FE91CF832784
:1041100044FE9C43F847930784FD3E868D45032566
:1041200044FE02972326A4FE8327C4FE3E85B25098
:10413000225445618280797106D622D40018232E3C
:10414000A4FC232CB4FCFD572326F4FE0325C4FD58
:10415000EFE06FFB2324A4FE832784FE9DC7832703
:1041600084FE83A7C70D2322F4FE832744FE91CF4C
:10417000832744FE9C43F847930784FD3E86894588
:10418000032544FE02972326A4FE8327C4FE3E8512
:10419000B250225445618280797106D622D400182B
:1041A000232EA4FC232CB4FC232604FE0325C4FDEB
:1041B000EFE06FF52324A4FE832784FE9DC78327A9
:1041C00084FE83A7C70D2322F4FE832744FE91CFEC
:1041D000832744FE9C43F847930784FD3E86914520
:1041E000032544FE02972326A4FE8327C4FE3E85B2
:1041F000B250225445618280011106CE22CC0010BB
:104200002326A4FE0325C4FEEFE0EFEFAA873E8538
:10421000F240624405618280797106D622D400188A
:10422000232EA4FC232CB4FC232AC4FC0325C4FDA8
:10423000EFE06FED2326A4FE8327C4FE99CB03266F
:1042400044FD832584FD0325C4FEEFF0DF8AAA87A1
:1042500011A0FD573E85B250225445618280011164
:1042600022CE00102326A4FE2324B4FE832784FE3E
:1042700083D7070013F737008D476314F700914782
:1042800011A089473E85724405618280797122D6EA
:104290000018232EA4FCF32710342326F4FE8327D2
:1042A000C4FE3E85325445618280011122CE001049
:1042B0002326A4FE2324B4FE832784FE73901734A0
:1042C00081473E85724405618280011106CE22CC71
:1042D00000102326A4FE0325C4FEEFE06FE5AA87A5
:1042E0003E85F240624405618280011122CE0010B9
:1042F0002326A4FE0327C4FEB707008093878745C3
:104300006315F700B707000C11A081473E85724482
:1043100005618280011122CE00102326A4FE03270E
:10432000C4FEB7070080938787456314F700ED4705
:1043300011A081473E85724405618280011122CE21
:1043400000102326A4FE0327C4FEB707008093872E
:1043500087456314F7009D4711A081473E8572444D
:1043600005618280011122CE00102326A4FE2324A1
:10437000B4FE832784FE91E7B70700809387870800
:1043800011A081473E85724405618280011122CED1
:1043900000102326A4FE2324B4FE832784FE99E381
:1043A000AD4711A081473E857244056182800111AD
:1043B00022CE00102326A4FE8327C4FE99E3814762
:1043C00011A0FD573E85724405618280797106D641
:1043D00022D40018232EA4FC232CB4FC0325C4FDF6
:1043E00029372326A4FE832784FD1397C70083273C
:1043F000C4FE3E97B70720009107BA979C433E85BD
:10440000B250225445618280797106D622D40018B8
:10441000232EA4FC232CB4FC232AC4FC0325C4FDB6
:10442000E9352326A4FE832784FD1397C70083273D
:10443000C4FE3E97B70720009107BA973E878327AF
:1044400044FD1CC30100B250225445618280797141
:1044500006D622D40018232EA4FC232CB4FC232A35
:10446000C4FC0325C4FD51352326A4FE832784FD07
:104470001397C7008327C4FE3E97B7072000BA975B
:104480003E87832744FD1CC381473E85B25022549A
:1044900045618280797106D622D40018232EA4FCAF
:1044A000232CB4FC0325C4FD89352326A4FE8327D1
:1044B00084FD1397C7008327C4FE3E97B7072000EB
:1044C000BA979C433E85B2502254456182807971EF
:1044D00006D622D40018232EA4FC232CB4FC232AB5
:1044E000C4FC0325C4FD11352326A4FE0325C4FD09
:1044F000B135AA872324F4FE832784FE85C70327CA
:1045000044FD832784FE637FF700832784FD8A07A9
:104510003E878327C4FEBA973E87832744FD1CC38A
:10452000814711A0FD573E85B250225445618280DB
:10453000797106D622D40018232EA4FC232CB4FCB7
:104540000325C4FD5D332326A4FE832784FD8A074B
:104550003E878327C4FEBA979C433E85B2502254BF
:1045600045618280797106D622D40018232EA4FCDE
:10457000232CB4FC232AC4FC2328D4FC0325C4FD2B
:10458000AD332326A4FE832784FD1397770083276A
:10459000C4FEBA97032744FD15870A073E9789672B
:1045A000BA979C432324F4FE832704FD81CF8327FD
:1045B00044FDFD8B0547B317F7003E87832784FE34
:1045C000D98F29A8832744FDFD8B0547B317F70032
:1045D00093C7F7FF3E87832784FEF98F032784FD67
:1045E000931677000327C4FE3697832644FD9586ED
:1045F0008A06BA96096736971CC381473E85B25032
:10460000225445618280011106CE22CC001023265F
:10461000A4FE2324B4FE1305C012EF2060087971B4
:1046200006D622D40018232EA4FC232CB4FC832706
:1046300084FD2326F4FEEFE0EFB4AA873E85853B98
:104640002324A4FE832584FE0325C4FE41332322B4
:10465000A4FE0325C4FE7D39AA872320F4FE032788
:1046600044FE832704FE6372F7040327C4FE8327F6
:1046700044FE8A07BA979C478DCB0327C4FE832745
:1046800044FE8A07BA9703A88700032644FE8326C0
:10469000C4FE032744FEBA878607BA978E07B697EB
:1046A00083A78708BE8532850298032644FE8325AA
:1046B00084FE0325C4FE893B0100B25022544561AB
:1046C0008280397106DE22DC80002326A4FC832749
:1046D000C4FC2322F4FE832744FEDC4363970712C5
:1046E000232604FE19AA0325C4FCEFF0BFC2232031
:1046F000A4FE8325C4FE0325C4FCAD31232EA4FCF7
:104700008325C4FE0325C4FC5131232CA4FC83273C
:10471000C4FD9C439C430325C4FD8297232404FECF
:1047200085A88146032684FE8325C4FE032544FE16
:10473000153D032784FE832704FE6356F7040146D4
:10474000832584FE0325C4FC5933032744FE8327B5
:1047500084FE8A07BA9723A40700832644FE032712
:1047600084FEBA878607BA978E07B69723A20708F2
:10477000832644FE032784FEBA878607BA978E07EE
:10478000B69723A40708832784FE85072324F4FE15
:10479000032784FE9307F03FE3D5E7F8014683251E
:1047A000C4FE0325C4FC65318327C4FD9C43DC4F54
:1047B000832644FE0146832584FD0325C4FD82979C
:1047C0008327C4FD9C43D84F832644FEB74740202F
:1047D0001386E761832584FD0325C4FD02978327A3
:1047E000C4FD9C43DC53832584FD0325C4FD8297CF
:1047F0008327C4FE85072326F4FE8327C4FEE354E3
:10480000F0EE832744FE0547D8C30100F2506254FE
:1048100021618280797106D622D40018232EA4FC4F
:10482000232CB4FC232AC4FC2328D4FC8327C4FDF6
:104830002326F4FE0325C4FDEFF0DFAD2A8783278E
:1048400084FD63C4E700FD5751A0832744FD9DCF3D
:104850000946832584FD0325C4FDEFF05FC70327C8
:10486000C4FE832784FD8A07BA97032744FD98C7AF
:104870008326C4FE032784FDBA878607BA978E076E
:10488000B697032704FD23A4E70881A005468325E6
:1048900084FD0325C4FDEFF09FC30327C4FE8327D7
:1048A00084FD8A07BA97374740201307676098C787
:1048B0008326C4FE032784FDBA878607BA978E072E
:1048C000B697032704FD23A2E70881473E85B2502F
:1048D000225445618280797106D622D40018232E95
:1048E000A4FC232CB4FC8327C4FD2326F4FE03255B
:1048F000C4FDEFF03FA22A87832784FD63C4E7004D
:10490000FD5729A8EFE00F88AA878546032684FD76
:10491000BE850325C4FEEFF0FFC481473E85B2503B
:10492000225445618280797106D622D40018232E44
:10493000A4FC232CB4FC8327C4FD2326F4FE03250A
:10494000C4FDEFF03F9D2A87832784FD63C4E70001
:10495000FD5729A8EFE00F83AA878146032684FD2F
:10496000BE850325C4FEEFF0FFBF81473E85B250F0
:10497000225445618280011106CE22CC00102326EC
:10498000A4FE2324B4FEEFD0FFFFAA87032684FEF3
:10499000BE850325C4FEEFF09FABAA873E85F2409B
:1049A000624405618280011106CE22CC00102326CC
:1049B000A4FEEFD03FFDAA87BE850325C4FEEFF01D
:1049C0007FADAA873E85F24062440561828079719D
:1049D00006D622D40018232EA4FC232CB4FC232AB0
:1049E000C4FC232204FE8327C4FD2324F4FE0325F4
:1049F000C4FDEFF03F922A87832744FD63C8E70098
:104A0000FD572322F4FE832744FE99A8232604FEA3
:104A100099A08327C4FE95C78546032644FD8325B8
:104A2000C4FE032584FEEFF0FFB3AA8713F7170037
:104A30008327C4FE3317F700832744FED98F232230
:104A4000F4FE8327C4FE85072326F4FE832784FD16
:104A50008583232CF4FC832784FDC5FF832744FE34
:104A60003E85B250225445618280797106D622D4A7
:104A70000018232EA4FC232CB4FC232AC4FC2322DC
:104A800004FE8327C4FD2324F4FE0325C4FDEFF0B8
:104A90007F882A87832744FD63C8E700FD572322C8
:104AA000F4FE832744FE99A8232604FE99A08327B9
:104AB000C4FE95C78146032644FD8325C4FE032515
:104AC00084FEEFF03FAAAA8713F717008327C4FEDE
:104AD0003317F700832744FED98F2322F4FE832760
:104AE000C4FE85072326F4FE832784FD8583232CBB
:104AF000F4FC832784FDC5FF832744FE3E85B25026
:104B0000225445618280797106D622D40018232E62
:104B1000A4FC232CB4FC232AC4FC232404FE232657
:104B200004FE91A08327C4FE8DC7032644FD832580
:104B3000C4FE0325C4FDEFF09F91AA8713F7170069
:104B40008327C4FE3317F700832784FED98F2324DD
:104B5000F4FE8327C4FE85072326F4FE832784FD05
:104B60008583232CF4FC832784FDCDFF832784FEDB
:104B70003E85B250225445618280011106CE22CC7E
:104B800000102326A4FE2324B4FE832584FE0325DF
:104B9000C4FEEFF03F9081473E85F24062440561DC
:104BA0008280011122CE00102326A4FEB7070080C8
:104BB0009387C7063E85724405618280011122CE2B
:104BC00000102326A4FE938741823E85724405612E
:104BD0008280011122CE00102326A4FE81473E854B
:104BE000724405618280411122C60008B717402037
:104BF0009387C7F33E85324441018280397106DED6
:104C000022DC80002326A4FC0325C4FC593F232674
:104C1000A4FE0325C4FC753F2324A4FE0325C4FC85
:104C2000713F2322A4FEC1372320A4FE832704FE64
:104C30009C43832584FE032544FE8297232EA4FCF7
:104C40000327C4FDB7070040F98F99E3FD5725A05E
:104C50008327C4FD63C40700FD5731A80325C4FEA4
:104C6000EF10300EAA873E878327C4FD93F7F70322
:104C70008507B357F7023E85F25062542161828066
:104C8000011106CE22CC00102326A4FE2324B4FE5C
:104C90000325C4FEA537AA873E85F240624405611C
:104CA0008280011122CE00102326A4FEB7070080C7
:104CB000938707063E85724405618280011122CEEA
:104CC00000102326A4FE938741823E85724405612D
:104CD0008280011122CE00102326A4FE91473E853A
:104CE000724405618280411122C60008B717402036
:104CF0009387C7F33E85324441018280397106DED5
:104D000022DC80002326A4FC0325C4FC593F232673
:104D1000A4FE0325C4FC753F2324A4FE0325C4FC84
:104D2000713F2322A4FEC1372320A4FE832704FE63
:104D30009C43832584FE032544FE8297232EA4FCF6
:104D40000327C4FDB7070040F98F99E3FD5721A859
:104D50008327C4FD63C40700FD5731A00325C4FEAB
:104D6000EF10207EAA873E85F25062542161828036
:104D7000011106CE22CC00102326A4FE2324B4FE6B
:104D80000325C4FEA53FAA873E85F2406244056123
:104D90008280011122CE00102326A4FEB7070080D6
:104DA000938787773E85724405618280011122CE08
:104DB00000102326A4FEB7070080938747783E851E
:104DC000724405618280011122CE00102326A4FEC8
:104DD000938741823E85724405618280011122CE13
:104DE00000102326A4FEB1473E85724405618280EF
:104DF000411122C60008938741823E853244410119
:104E00008280411122C60008A1473E8532444101FB
:104E10008280411122C60008B727F400938707401B
:104E20003E85324441018280411122C60008B78785
:104E300000103E85324441018280411122C60008A3
:104E4000B71740209387C7F33E85324441018280E3
:104E5000011122CE00102326A4FE2324B4FE8327B2
:104E600084FE9C470327C4FE6369F700832784FE02
:104E7000DC470327C4FE63F4E700FD5729A8832716
:104E800084FE98438327C4FE3307F702832784FEFA
:104E9000DC43B357F7023E85724405618280397165
:104EA00006DE22DC80002326A4FC8327C4FC3E858A
:104EB000F53D2326A4FEB13F2324A4FE99372322E7
:104EC000A4FE9D372320A4FE032704FE832744FE6F
:104ED000BA97232EF4FC8327C4FCDC433E85EF10F5
:104EE000E05C8327C4FD9843C167F98F91CB83278A
:104EF000C4FD9843C177FD177D8F8327C4FD98C3F8
:104F00008327C4FE91CB8327C4FD9843B7070200D3
:104F10005D8F8327C4FD98C38327C4FC9C43D8437B
:104F20008327C4FC832584FE3E8502978327C4FC27
:104F30009C473E85EF1080570100F250625421617A
:104F400082801D7186CEA2CC80102326A4FA032570
:104F5000C4FAA93D2326A4FE0325C4FA1D3D23243B
:104F6000A4FE0325C4FA713D2322A4FE0325C4FA3E
:104F700041352320A4FE0325C4FA8D35232EA4FC3D
:104F80000325C4FA8935232CA4FC453D232AA4FC1F
:104F9000832744FD9C43832544FE032504FE82971A
:104FA0002328A4FC832744FD9C438325C4FD0325BB
:104FB00084FD82972326A4FC032704FDC1677D8F0F
:104FC000C1676378F700032584FEEF108057AA8736
:104FD000E1A8032704FDB70702007D8FB707020091
:104FE0006365F7008327C4FE19A0832784FE3E85EE
:104FF000EF1020552324A4FC032704FDB707040069
:105000007D8FB70704006365F700832784FC69A8D8
:10501000832704FD9D8B85072322F4FC832704FD51
:1050200093F7073F9183850786072320F4FC032726
:1050300004FD8567938707C07D8F9307F03F63E486
:10504000E700FD5795A0032704FD8567938707C0F8
:10505000F98FA9830547B317F700232EF4FA032726
:1050600084FC832744FC3347F702832704FC33077F
:10507000F7028327C4FBB347F702232CF4FA8327F4
:10508000C4FC13F707109307F00F63F5E7008327BD
:1050900084FB19A8032784FB8327C4FC93F7F70339
:1050A00085078607B357F7023E85F64066442561BB
:1050B0008280397106DE22DC80002326A4FC2324B2
:1050C000B4FCFD572326F4FEB707008093C7F7FF13
:1050D0002324F4FE930730042322F4FEB5A0832694
:1050E000C4FC832744FE13975700B70740209387DB
:1050F000075EBA97BE853685EFF09FD52320A4FEC4
:10510000032704FEFD57630CF702032704FE8327E1
:1051100084FC1D8F9357F7413D8FB307F740232E33
:10512000F4FC0327C4FD832784FE635AF70083271A
:1051300044FE2326F4FE8327C4FD2324F4FE8327A4
:1051400044FEFD172322F4FE832744FEE3D907F82B
:105150008327C4FE3E85F2506254216182807971BA
:1051600006D622D40018232EA4FC232CB4FC232A18
:10517000C4FC8327C4FD9C4313F787FF8327C4FD2A
:1051800098C38327C4FD9843832744FD9C4B9D8B84
:105190005D8F8327C4FD98C38327C4FD9C4313F709
:1051A000F7C08327C4FD98C38327C4FD9843832792
:1051B00044FDDC4B920793F7073F5D8F8327C4FDC7
:1051C00098C38327C4FD9843FD779387F73F7D8F6E
:1051D0008327C4FD98C38327C4FD9843832744FDD8
:1051E0009C4F9396A7008567938707C0F58F5D8FC7
:1051F0008327C4FD98C3832744FDDC4F63DB07028C
:10520000832784FD9C4313E70710832784FD98C3FD
:10521000832784FD9C4313F707FC832784FD98C3F1
:10522000832784FD9C4313E71700832784FD98C3DD
:105230002DA8832784FD9C4313F7F7EF832784FD74
:1052400098C3832784FD9C4313F707FC832784FDC1
:1052500098C3832784FD9843832744FDDC4F93F74D
:10526000F7035D8F832784FD98C38327C4FD98438C
:10527000B707FCFFFD177D8F8327C4FD98C39307F5
:1052800004FE3E868545B70700801385C77AEFD0B8
:105290004FC8032604FE832644FE1145814533078B
:1052A000A6003A883338C800B387B600B306F800C2
:1052B000B6872324E4FE2326F4FE19A8930704FEF0
:1052C0003E868545B70700801385C77AEFD06FC447
:1052D000032704FE832744FE8326C4FE3E8663EC38
:1052E000C6008326C4FE3E86E39AC6FC832684FE5F
:1052F000BA87E3F5F6FC01008327C4FD9C43E3DD98
:1053000007FE01000100B2502254456182805D71A8
:1053100086C6A2C48008232EA4FA232CB4FA03253F
:10532000C4FBEFF0BFA82326A4FE0325C4FBEFF0C7
:105330005FA62324A4FE0325C4FBEFF09FAC232229
:10534000A4FE0325C4FBEFF07FA92320A4FEEFF009
:10535000BFAD232EA4FC0327C4FD832744FEBA97C8
:10536000232CF4FC0327C4FD832704FEBA97232AC9
:10537000F4FC832784FD9843C167F98F91CB832781
:1053800084FD9843C177FD177D8F832784FD98C3E3
:10539000832784FD9843B7070200F98F81C78327CD
:1053A000C4FE19A0832784FE3E85EF1080192328B0
:1053B000A4FC032704FDBA878607BA9713D7F741E1
:1053C0000D8BBA9789873E87832784FB63CBE702DF
:1053D000032704FDBA878A07BA9713D7F7410D8BC5
:1053E000BA9789873E87832784FB634CF70083271E
:1053F00084FD9843B70704005D8F832784FD98C31D
:1054000081A8832584FB032504FDEFF09FCA232692
:10541000A4FC0327C4FCFD576303F7028327C4FCE5
:1054200013975700B70740209387075EBA973E86C9
:10543000832544FD032584FDEFF07FD211A8832747
:1054400084FD9843B70704005D8F832784FD98C3CC
:10545000832784FD9843C1675D8F832784FD98C3AC
:105460000325C4FBEFF0FFADAA873E85B640264476
:1054700061618280411122C60008B78700103E8515
:10548000324441018280797106D622D40018232E3D
:10549000A4FC232CB4FCF93FAA872326F4FE03279F
:1054A00084FD8327C4FEBA979C433E85B2502254A4
:1054B00045618280797106D622D40018232EA4FC7F
:1054C000232CB4FC232AC4FC7537AA872326F4FEB8
:1054D000032784FD8327C4FEBA973E87832744FDB4
:1054E0001CC33E85B250225445618280011122CEF8
:1054F00000102326A4FE0327C4FE9387C1816315F1
:10550000F700B727011011A081473E85724405615D
:105510008280011122CE00102326A4FE0327C4FEA0
:105520009387C1816317F700B7070080938787458A
:1055300011A081473E85724405618280011122CE0F
:1055400000102326A4FE2324B4FE0327C4FE938761
:10555000C1816317F700832784FE99E39D4769A201
:105560000327C4FE9387C1816319F700032784FED4
:1055700085476314F700A14785AA0327C4FE9387D4
:10558000C1816319F700032784FE89476314F7007C
:10559000A54799AA0327C4FE9387C1816319F70021
:1055A000032784FE8D476314F700A94735AA032714
:1055B000C4FE9387C1816319F700032784FE9147D6
:1055C0006314F700AD470DA20327C4FE9387C18182
:1055D0006319F700032784FE95476314F700B1476A
:1055E00021A20327C4FE9387C1816319F700032713
:1055F00084FE99476314F700B547FDA00327C4FE56
:105600009387C1816319F700032784FE9D476314C4
:10561000F700B947D1A80327C4FE9387C181631956
:10562000F700032784FEA1476314F700BD476DA868
:105630000327C4FE9387C1816319F700032784FE03
:10564000A5476314F700C14745A00327C4FE93870D
:10565000C1816319F700032784FEA9476314F7008B
:10566000C54759A00327C4FE9387C1816319F7007A
:10567000032784FEAD476314F700C947B5A003278D
:10568000C4FE9387C1816319F700032784FEB147E5
:105690006314F700CD4789A80327C4FE9387C1810F
:1056A0006319F700032784FEB5476314F700D14759
:1056B00025A80327C4FE9387C1816319F700032738
:1056C00084FEB9476314F700D54739A80327C4FE01
:1056D0009387C1816319F700032784FEBD476314D4
:1056E000F700D94711A081473E8572440561828049
:1056F000797106D622D40018232EA4FC232CB4FCE6
:105700000325C4FDEFF09FDEAA872326F4FE83273E
:10571000C4FE91079843832784FD8326C4FE910627
:10572000D98F9CC281473E85B25022544561828008
:10573000797106D622D40018232EA4FC232CB4FCA5
:105740000325C4FDEFF09FDAAA872326F4FE832702
:10575000C4FE91079C43032784FD1347F7FFBA86D5
:105760000327C4FE1107F58F1CC381473E85B25045
:10577000225445618280797106D622D40018232EE6
:10578000A4FC0325C4FDEFF07FD6AA872326F4FEF0
:105790008327C4FE9C433E85B250225445618280DB
:1057A000797106D622D40018232EA4FC0325C4FD4B
:1057B000EFF0DFD3AA872326F4FE8327C4FEB107C8
:1057C0009C433E85B250225445618280797106D651
:1057D00022D40018232EA4FC232CB4FC0325C4FDE2
:1057E000EFF0DFD0AA872326F4FE8327C4FEA107AB
:1057F0009C43032784FD1347F7FFBA860327C4FEA3
:105800002107F58F1CC381473E85B2502254456164
:105810008280797106D622D40018232EA4FC232C72
:10582000B4FC0325C4FDEFF07FCCAA872326F4FE49
:105830008327C4FEA1079843832784FD8326C4FEE3
:10584000A106D98F9CC281473E85B2502254456142
:105850008280797106D622D40018232EA4FC232C32
:10586000B4FC0325C4FDEFF07FC8AA872326F4FE0D
:105870008327C4FEB1079843832784FD8326C4FE93
:10588000B106D98F9CC281473E85B25022544561F2
:105890008280797106D622D40018232EA4FC232CF2
:1058A000B4FC0325C4FDEFF07FC4AA872326F4FED1
:1058B0008327C4FEB1079C43032784FD1347F7FFEA
:1058C000BA860327C4FE3107F58F1CC381473E8586
:1058D000B250225445618280797106D622D40018D4
:1058E000232EA4FC232CB4FC0325C4FDEFF01FC021
:1058F000AA872326F4FE8327C4FEB1079843832793
:1059000084FD8326C4FEB106B98F9CC281473E85C3
:10591000B250225445618280797106D622D4001893
:10592000232EA4FC232CB4FC232AC4FC0325C4FD91
:10593000EFF0DFBBAA872326F4FE8327C4FE9387FC
:10594000C7039843832784FD8326C4FE9386C6033A
:10595000D98F9CC28327C4FE9387870398438327EC
:1059600044FD8326C4FE93868603D98F9CC281475B
:105970003E85B250225445618280797106D622D488
:105980000018232EA4FC232CB4FC0325C4FDEFF047
:10599000FFB5AA872326F4FE8327C4FE93878703D7
:1059A0009C43032784FD1347F7FFBA860327C4FEF1
:1059B00013078703F58F1CC381473E85B2502254DD
:1059C00045618280797106D622D40018232EA4FC6A
:1059D000232CB4FC232AC4FC0325C4FDEFF01FB123
:1059E000AA872326F4FE032744FD9D4763E9E71CAD
:1059F000832744FD13972700B71740209387C7E6F6
:105A0000BA979C4382878327C4FEE1079C43032700
:105A100084FD1347F7FFBA860327C4FE6107F58F9D
:105A20001CC38327C4FE938707029C43032784FD7E
:105A30001347F7FFBA860327C4FE13070702F58F43
:105A40001CC38327C4FE938787029C43032784FDDE
:105A50001347F7FFBA860327C4FE13078702F58FA3
:105A60001CC38327C4FE938707039C43032784FD3D
:105A70001347F7FFBA860327C4FE13070703F58F02
:105A80001CC335AA8327C4FEE1079843832784FDFE
:105A90008326C4FEE106D98F9CC215A28327C4FECB
:105AA000938707029843832784FD8326C4FE938649
:105AB0000602D98F9CC221A28327C4FEE107984326
:105AC000832784FD8326C4FEE106D98F9CC28327E9
:105AD000C4FE938707029843832784FD8326C4FE70
:105AE00093860602D98F9CC2D9A88327C4FE9387C8
:105AF00087029843832784FD8326C4FE938686020B
:105B0000D98F9CC26DA88327C4FE9387070398434F
